:020000040800F2
:1000000000200020A5B90008F5B90008F5B90008DE
:1000100000000000000000000000000000000000E0
:10002000000000000000000000000000F5B900081A
:100030000000000000000000F5B900087161000830
:10004000F5B90008F5B90008F5B90008F5B90008D8
:10005000F5B90008856100086D620008CD610008EF
:10006000F5B90008F5B90008F5B90008F5B90008B8
:10007000F5B90008F5B90008F5B90008F5B90008A8
:100080009D620008F5B900080000000051620008F8
:10009000F5B90008F5B90008F5B9000821620008B3
:1000A000F5B90008F5B90008F5B90008F5B9000878
:1000B000F5B9000800000000F5B9000800000000D4
:1000C00010B5064C2378002B07D1054B002B02D02E
:1000D000044800E000BF0123237010BD6800002029
:1000E0000000000094C50008084B10B5002B03D099
:1000F0000749084800E000BF07480368002B00D10B
:1001000010BD064B002BFBD09847F9E7000000001C
:100110006C00002094C5000868000020000000006A
:10012000002243088B4274D303098B425FD3030A36
:100130008B4244D3030B8B4228D3030C8B420DD349
:10014000FF22090212BA030C8B4202D312120902D7
:1001500065D0030B8B4219D300E0090AC30B8B4215
:1001600001D3CB03C01A5241830B8B4201D38B03C3
:10017000C01A5241430B8B4201D34B03C01A524168
:10018000030B8B4201D30B03C01A5241C30A8B42AB
:1001900001D3CB02C01A5241830A8B4201D38B0296
:1001A000C01A5241430A8B4201D34B02C01A52413A
:1001B000030A8B4201D30B02C01A5241CDD2C309AC
:1001C0008B4201D3CB01C01A524183098B4201D328
:1001D0008B01C01A524143098B4201D34B01C01A13
:1001E000524103098B4201D30B01C01A5241C3088B
:1001F0008B4201D3CB00C01A524183088B4201D3FA
:100200008B00C01A524143088B4201D34B00C01AE5
:100210005241411A00D20146524110467047FFE751
:1002200001B5002000F0F0F802BDC0460029F7D06B
:1002300076E7704703460B437FD4002243088B4286
:1002400074D303098B425FD3030A8B4244D3030B5D
:100250008B4228D3030C8B420DD3FF22090212BA22
:10026000030C8B4202D31212090265D0030B8B429E
:1002700019D300E0090AC30B8B4201D3CB03C01A88
:100280005241830B8B4201D38B03C01A5241430B63
:100290008B4201D34B03C01A5241030B8B4201D353
:1002A0000B03C01A5241C30A8B4201D3CB02C01ABE
:1002B0005241830A8B4201D38B02C01A5241430A36
:1002C0008B4201D34B02C01A5241030A8B4201D325
:1002D0000B02C01A5241CDD2C3098B4201D3CB01CC
:1002E000C01A524183098B4201D38B01C01A52417B
:1002F00043098B4201D34B01C01A524103098B427F
:1003000001D30B01C01A5241C3088B4201D3CB0069
:10031000C01A524183088B4201D38B00C01A52414C
:1003200043088B4201D34B00C01A5241411A00D2FC
:1003300001465241104670475DE0CA0F00D0494265
:10034000031000D34042534000229C4603098B42D5
:100350002DD3030A8B4212D3FC22890112BA030A5D
:100360008B420CD3890192118B4208D389019211DF
:100370008B4204D389013AD0921100E08909C30964
:100380008B4201D3CB01C01A524183098B4201D366
:100390008B01C01A524143098B4201D34B01C01A51
:1003A000524103098B4201D30B01C01A5241C308C9
:1003B0008B4201D3CB00C01A524183088B4201D338
:1003C0008B00C01A5241D9D243088B4201D34B0053
:1003D000C01A5241411A00D20146634652415B1095
:1003E000104601D34042002B00D549427047634676
:1003F0005B1000D3404201B5002000F005F802BDBB
:100400000029F8D016E770477047C0468446101C94
:1004100062468C46191C634600E0C0461FB501F0D9
:10042000A3FE002801D40021C8421FBD10B501F071
:10043000FDFD4042013010BD10B501F095FE0028D1
:1004400001DB002010BD012010BDC04610B501F039
:100450008BFE002801DD002010BD012010BDC0462C
:1004600010B501F01DFE002801DC002010BD0120A8
:1004700010BDC04610B501F013FE002801DA0020BF
:1004800010BD012010BDC0468446081C6146FFE730
:100490001FB500F0D3FB002801D40021C8421FBDC6
:1004A00010B500F065FB4042013010BD10B500F002
:1004B000C5FB002801DB002010BD012010BDC04697
:1004C00010B500F0BBFB002801DD002010BD0120AD
:1004D00010BDC04610B500F071FB002801DC002003
:1004E00010BD012010BDC04610B500F067FB00280C
:1004F00001DA002010BD012010BDC046F0B5CE4687
:10050000474615042D0C2E0080B50704140C3F0C33
:100510009946030C7E435D43674363437F19340C64
:10052000E4199C46A54203D980235B029846C44443
:100530004B46514343433604360C250C2404654492
:10054000A4195918491920000CBC90469946F0BDD1
:100550009E2110B5C905041CFFF7C6FF002803D172
:10056000201C00F069FE10BD9E21201CC90500F072
:10057000C7FC00F061FE80231B069C466044F2E746
:1005800070B500220C4B04000D00FFF773FF00282C
:1005900004D12000290002F0DFFB70BD064B0022D1
:1005A0002000290002F0C2F802F0D6FB80231B06CF
:1005B0009C466044F1E7C0460000E041F0B5C64605
:1005C0004E024702760A7B0A4400C50FF700480036
:1005D000984600B5240E2A00DB00000EC90FBC4669
:1005E0008D4267D0221A002A00DCA5E000283AD10B
:1005F000002F00D193E0511E002900D0BCE001245F
:10060000DB1B5A0146D59B019E09300002F0F6FC27
:1006100005388640844200DD9DE0041B3200202026
:100620000134E240041BA64033005E1EB3410024A7
:1006300013435A0704D00F221A40042A00D004336F
:100640005A0129D50134FF2C00D181E02A009B01F9
:100650005B0AE4B25B02E405580AD2072043104368
:1006600004BC9046F0BDFF2CE3D080213800C904C3
:10067000084384461B2A00DD82E020206146D140E9
:10068000821A604690400200501E82410A439B1A23
:100690005A01B8D45A07CED1DE082A00FF2C3AD12D
:1006A000002E00D1AEE08023DB0333435B025B0A04
:1006B000FF24CFE7211A002952DD002831D0FF2C7A
:1006C000B7D080203E00C0040643B4461B2900DD9D
:1006D000AAE020266046C840711A66468E40310066
:1006E0004E1EB14101435B185901D3D50134FF2C93
:1006F00000D187E0012278491A405B080B40134380
:1007000097E7002C00D0A7E0002B00D0B6E03B1EFE
:1007100062D10026002273025B0AE4B29AE7140059
:1007200087E7002F4DD0481E002857D1634401248D
:100730005A01AFD50224DDE7002A24D1621CD2B2CF
:10074000012ADEDDDE1B720135D5FE1A0D005CE7E5
:100750002A0000237EE73300604A241A134068E72A
:10076000002963D1611CC8B201284EDDFF2949D0A0
:1007700063445B080C005CE7FF2A41D00A0079E77C
:1007800001229B1A84E7002C1DD0FF2822D0802450
:10079000E404524223431B2A00DD8AE01C0020258A
:1007A000D440AA1A93405A1E934123436246040040
:1007B000D31A0D0025E7002E00D026E700220024E2
:1007C000A9E70C0035E7002B4DD0D243002AEDD02D
:1007D000FF28E0D16346FF240D002AE7FF290FD050
:1007E000010073E7002B61D0FF24002F00D120E728
:1007F00080224146D203114202D0164200D13B0072
:10080000FF2416E7FF24002324E7002CEAD1002B65
:1008100058D0002F00D10CE763445A0100D439E7C7
:100820002E4A0C00134004E701215CE7002C1ED186
:10083000002B40D0C94300290BD0FF2836D01B29FC
:1008400047DC1C002026CC40711A8B40591E8B417E
:1008500023436344040047E7002B18D13B1E2DD0EF
:100860000D00FF24E5E63B0004000D00E1E6FF2853
:100870001CD08024E40449422343E0E7002F00D148
:10088000D7E6DE1B72011FD5FB1A0D00D1E6FF244F
:10089000002F00D1CDE680224046D2031042AFD0D7
:1008A0001642ADD13B000D00FF24C2E66346FF2493
:1008B000BFE601237AE73B000400BAE68026002267
:1008C000F603F0E63B00B4E6331E00D0E2E6002279
:1008D00021E70123BDE7C046FFFFFF7DFFFFFFFBD0
:1008E000F0B557464E46DE464546E0B54402430065
:1008F000C60F83B00F1C640A1B0EB24653D0FF2BE9
:1009000027D08022E400D20414437F225242904632
:100910009844002399469B467D027800FB0F6D0AA0
:10092000000E009324D0FF2846D080230021ED0044
:10093000DB041D437F384746381A4F460F43BF003C
:10094000B9463300009A874F53404A46BA5801933C
:100950009746002C4ED108239946F7339846FD3B25
:100960009B467D027800FB0F6D0A000E0093DAD1E2
:10097000002D26D1002001213300009A7A4F5340E8
:100980004246101A4A460A439200BA581D0097463A
:10099000009B2C009A468B465B46022B31D1534676
:1009A000FF21002438E0002C17D1042399460023AE
:1009B000984601339B46AFE7FF20002D0BD1022163
:1009C000DAE7280002F01AFB431F9D4076235B42C2
:1009D000181A0021AFE70321ADE7200002F00EFB5B
:1009E000431F9C4076235B421B1A9846002399467E
:1009F0009B4691E70C239946F3339846FC3B9B4674
:100A00008AE7032B00D1A5E05546012B00D081E0F9
:100A10000123002100242B406402C905600ADB0782
:100A20000843184303B03CBC90469946A246AB46E7
:100A3000F0BD80240023E403FF21EDE7FF21002423
:100A4000EAE70123591A1B2966DD019A13400021A8
:100A50000024E1E78023DB031C4238D01D4251D043
:100A60001C436402640A3300FF21D5E763016C0173
:100A7000A3423BD21B260021013801251F0049005B
:100A80005B00002F01DB9C4201D81B1B2943013E68
:100A9000002EF3D11C00631E9C410C4301007F31EA
:100AA0000029CEDD630704D00F232340042B00D0A0
:100AB0000434230103D501002C4B80311C40FE2956
:100AC0000DDD0123019AFF2113400024A4E78023B8
:100AD000DB031C436402640A3300FF219CE701230B
:100AE000019AA401640AC9B2134095E71B1B1A2698
:100AF0000121C2E7009B8B469A4600244CE7630223
:100B0000E5D500258024E4032C436402640A009B9D
:100B1000FF2181E70195C1E723002020CB40411A46
:100B20008C40611E8C411C43630704D00F2323407B
:100B3000042B00D00434630105D50123019A01215F
:100B40001340002468E70123019AA401640A1340BA
:100B5000002161E78023DB031C436402640A5346DF
:100B6000FF2159E7DCDD00081CDE0008FFFFFFF76E
:100B700070B5420045024E024C00C30F6D0A120EC2
:100B8000760A240EC90F0120FF2A06D0FF2C03D0BD
:100B9000A24201D1B54206D070BD002DFCD1FF2C80
:100BA000FAD1002EF8D18B4206D00120002AF3D1D1
:100BB0002800451EA841EFE70020EDE7F0B5420010
:100BC00045024C02C30F48006D0A120E640A000E63
:100BD000C90FFF2A1ED0FF2821D0002A0AD16E4259
:100BE0006E41F6B200280FD1002C0DD10020002D4F
:100BF00009D005E0002801D1002C01D08B4211D092
:100C0000012158420843F0BD002EF7D001200139E0
:100C10000843F8E7002DDED002204042F3E7002C25
:100C2000DBD0F9E78242EBDC04DBA542E8D8002008
:100C3000A542E8D20121581E0843E4E7F0B542007E
:100C40004D024C004602760A120EC30F6D0A240EA6
:100C5000C90FFF2A16D0FF2C18D0002A0AD17042E3
:100C60007041C0B2002C15D0002805D001200139F8
:100C70000843F0BD002C13D0994214D001205B42F0
:100C80001843F6E70220002EF3D1E4E70220002DFE
:100C9000EFD1E2E7002DE7D10020002EE9D0EDE70B
:100CA000002DE9D1EAE7A24206DCDFDBAE4203D841
:100CB0000020AE42DAD3DCE7012049420843D8E7FE
:100CC000F8B557464E464546DE46E0B54702460073
:100CD00088467F0A360EC40F002E47D0FF2E24D040
:100CE000FB008027FF041F43002399469A467F3E5E
:100CF00043465D025800DB0F6D0A000E984643D054
:100D0000FF283BD0EB0080250022ED041D437F38F7
:100D10003618731C41469B464B46614013430F2BCC
:100D200064D875489B00C3589F46002F42D10823C2
:100D30009946063BFF269A46DAE74146022A28D022
:100D4000032A00D1CEE0012A00D0ACE011400020FF
:100D50000022CCB24002D205400AE40710432043EF
:100D60003CBC90469946A246AB46F8BD002F15D133
:100D700004239946033B00269A46B9E7FF20022246
:100D8000002DC5D00322C3E7002D19D10020012278
:100D9000BEE70124FF220C400020DBE7380002F010
:100DA0002DF97626431F9F4000237642361A994636
:100DB0009A469DE70C239946093BFF269A4697E7FA
:100DC000280002F01BF9431F9D4076235B42181A4E
:100DD00000229DE780200024C003FF22BAE73D00E7
:100DE0005246ABE73D0021005246A7E73B0C9C462C
:100DF0002A04120C2B0C1400604665463F043F0C7D
:100E00007C4342435D437B43270C9B18FF18BA4247
:100E100003D980235B029C46654424043A04240CD5
:100E2000121993015C1EA3413F0C920E7D191A43C7
:100E3000AD0115432B0104D501235E466A081D4010
:100E4000154332007F32002A25DD6B0704D00F23C3
:100E50002B40042B00D004352B0103D53200274B47
:100E600080321D40FE2A94DC0124A801400AD2B23F
:100E70000C406FE78020C003074207D0054205D130
:100E800028434002400A4446FF2263E738434002B9
:100E9000400AFF225EE70124A31A1B2B05DD0C404C
:100EA0000022002056E75E46CBE72A002020DA40E9
:100EB000C31A9D402B005D1EAB4113435A0704D05B
:100EC0000F221A40042A00D004335A0104D5012409
:100ED00001220C4000203DE701249B01580A0C40F0
:100EE000002237E780200124C00328434002400A43
:100EF0000C40FF222EE7C0465CDE0008FFFFFFF734
:100F0000F0B54F46D64646464400C0B5C20F47022C
:100F10004802400A844666467B0A4800C90F9A4642
:100F2000240E1500DB00000E8946F600FF2800D1D4
:100F30008FE001214F464F403900914266D0221A7E
:100F4000002A00DC9DE000283DD1002E00D18BE07E
:100F5000511E002900D0B5E001249B1B5A0144D545
:100F60009B019F09380002F049F805388740844208
:100F700000DD96E0041B3A0020200134E240041B0F
:100F8000A7403B005F1EBB41002413435A0704D017
:100F90000F221A40042A00D004335A0127D5013405
:100FA000FF2C00D179E001229B015B0AE4B22A40C8
:100FB0005B02E405580AD207204310431CBC90464C
:100FC0009946A246F0BDFF2CE0D08021C9040E4313
:100FD0001B2A7BDC31002020D140821A9640721EF1
:100FE00096410E439B1B5A01BAD45A07D0D1012215
:100FF000DF082A40FF2C33D1002F00D1A8E0802346
:10100000DB033B435B025B0AFF24D1E7211A002983
:101010004CDD00282AD0FF2CB8D08020C004064325
:101020001B2900DDAFE030002027C840791A8E4030
:10103000711E8E4106439B195901D6D50134FF2CF0
:1010400000D185E001227A491A405B080B40134326
:101050009CE7002E00D070E76BE73B1EC5D1002255
:101060007B025B0AE4B2A3E714008FE7002E4DD0A9
:10107000481E002857D19B1901245A01B5D50224D6
:10108000E0E7002A25D1621CD2B2012A72DD9F1B43
:101090007A0135D5F71A0D0064E7012200232A40B2
:1010A00086E73B00634A241A13406FE700296CD19E
:1010B000611CC8B201284EDDFF2949D09B195B088D
:1010C0000C0063E7FF2A41D00A0081E701269B1B41
:1010D00089E7002C1CD0FF2821D08024E404524250
:1010E00023431B2A00DD96E01C002025D440AA1AC9
:1010F00093405A1E93412343F31A04000D002DE739
:10110000002F00D02EE700220024A9E70C003DE7C5
:10111000002B58D0D243002AEED0FF28E1D1330073
:10112000FF240D0032E7FF2910D0010078E7002BE3
:101130006ED0FF24002E00D128E780225146D20332
:10114000114203D06146114200D13300FF241DE754
:10115000FF2400232CE7002CE9D1002B63D0002EC4
:1011600000D113E79B195A0100D43EE7314A0C0025
:1011700013400BE7002C1ED1002B2FD1002E4FD097
:1011800033000D0002E7012655E7002C1FD1002B8C
:1011900043D0C94300290BD0FF2839D01B2944DC98
:1011A0001C002027CC40791A8B40591E8B412343C9
:1011B0009B19040040E7002B1AD1002E24D1802770
:1011C0000022FF031BE7330004000D00DEE6FF28CA
:1011D0001ED08024E40449422343DFE7002E00D1DF
:1011E000D4E69F1B7A0100D437E7F31A0D00CDE651
:1011F000FF24002E00D1C9E680225046D2031042BF
:10120000A4D060461042A1D133000D00FF24BDE6FA
:101210003300FF24BAE601236EE733000400B5E68D
:10122000002700221CE73300B0E60123C0E7C046D8
:10123000FFFFFF7DFFFFFFFB41024300C20F490A92
:101240001B0E00207E2B0DDD9D2B0CDC802000046E
:101250000143952B0ADC9620C31AD9404842002A44
:1012600000D108007047034BD018FBE7963B99402C
:10127000F4E7C046FFFFFF7F70B5002830D0C317EA
:10128000C4185C40C50F200001F0B8FE9E231B1A55
:10129000962B0DDC9622D21A94402A006402640A2E
:1012A000DBB26402DB05600AD2071843104370BD4D
:1012B000992B19DC9922D21A002A29DD94402200A8
:1012C000144C1440510704D00F210A40042A00D0C6
:1012D0000434620113D4A401640ADBB22A00E0E7FB
:1012E000002200230024DCE705222100121AD1404D
:1012F000B922D21A9440621E94410C43DAE7054B9E
:101300002A001C409F23A4011B1A640ADBB2C8E711
:101310002200D5E7FFFFFFFB10B5041E27D001F028
:101320006DFE9E231B1A962B0ADC9622D21A94403D
:101330006402640ADBB26402DB05600A184310BD74
:10134000992B17DC9922D21A002A27DD944022001B
:10135000134C1440510704D00F210A40042A00D036
:101360000434620112D4A401640ADBB2E3E700236F
:101370000024E0E7B9222100D21A91400A00511E50
:101380008A410521091ACC401443DBE7044B1C4079
:101390009F23A4011B1A640ADBB2CCE72200D7E723
:1013A000FFFFFFFBF8B54546DE4657464E460C03A9
:1013B000E0B54E00C90F88460D00610A440F0C438A
:1013C000C70019035800DB0F9B464B0A510F0B4314
:1013D000760D400D1900D200D84500D1AEE0351A87
:1013E000002D00DCF6E000280FD1134300D1DBE034
:1013F0006B1E002B00D037E1BA1A9742BF41641A26
:101400007F42E41B0126170024E0C64B9E424DD0CC
:1014100080231B041943382D00DD07E11F2D00DD5B
:1014200038E12020431B9A460B00504683409946E2
:1014300013004846EB401843030050468240501EBC
:101440008241E9401A43BA1A611A9742A44117002F
:1014500064420C1B230262D56402650A002D00D190
:10146000DFE0280001F0CAFD0300083B1F2B00DD70
:10147000D2E020223C00D21A9D40D4409F40254318
:101480009E4200DDC4E09E1B731C1F2B00DDF1E0BB
:10149000202238002900D21AD840914097402C00D1
:1014A0000143781E8741DC4000260F437B0709D0AB
:1014B0000F233B40042B05D03B1DBB42BF417F4265
:1014C000E4191F0023022CD5964B01369E4200D111
:1014D0009AE04546944BFF081C406007760564027D
:1014E0000743240B760D00212403230B0C0D8F4A98
:1014F00024051C431440330523435B00ED075B08C0
:101500002B43380019003CBC90469946A246AB4696
:10151000F8BD6446044300D111E2040067467B072E
:10152000C6D145466007FF080743E4087D4B9E424D
:1015300030D024037605240B760DD4E7331A9A466F
:10154000002B78DD002831D076488642AED080204E
:10155000000401435346382B00DCE9E00A43511EE6
:101560008A410021D219BA42BF4109197C421700B1
:101570000C192302D3D56B4B01369E4200D13AE1C0
:101580000120694B1C407B0807401F43E0070743CD
:1015900064088BE723003B4300D1CBE18022120398
:1015A00014432403240B9EE72E007FE7080010431A
:1015B00000D1B4E0581E002800D0DEE0BA18BA42CC
:1015C0009B4164185B42E418170001262302A6D54C
:1015D0000226D5E7002D6ED1701C4005400D012874
:1015E00000DCF9E0B81A844687428041E51A40429F
:1015F0002D1A280200D489E0D71BBA4292411C1B45
:101600005242A51AD84629E74546002400276AE732
:10161000454CF61A2C4049E73D0028388540002704
:101620002EE7380001F0EAFC20301DE70A43511E86
:101630008A41002107E7002B00D0F3E0701C43052E
:101640005B0D012B00DCADE0364B984200D1D1E0C0
:10165000BA18BA42BF4164187F42E419E70752083A
:1016600017436408060021E72E48854200D193E025
:101670001D00D0E629001F3EF140202B00D18DE057
:101680004022D31A9D402F437D1EAF4100240F43BB
:10169000002644E72B000800203BD8400300202D03
:1016A00000D17DE04020451BA9400A43511E8A41DC
:1016B00000211A43C7E6002E50D01A4EB04257D030
:1016C00080266B429946360434434B46382B00DD66
:1016D000D6E01F2B00DD35E12026F51A2600AE40AE
:1016E000B2463E00DE40AC46350056462E436546C7
:1016F000AF407D1EAF41DC403743D71BBA42924119
:101700000C1B5242A41A0600D846A3E6644667465C
:101710002C4300D0A2E600250026002706E71E0085
:10172000C4E6C046FF070000FFFF7FFFFFFF0F80FA
:101730001F2B63DC2020C31A080098409C46834678
:1017400053461000D84003005846184363469A4059
:10175000531E9A4153460243D94003E726003E43B5
:1017600006D0EB439946002BC7D0944EB042ACD183
:101770000C0017000600D84698E6904B9A450BD00F
:101780008246E7E6002800D09EE01800104300D112
:10179000E9E01C001700D846884E87E6002572E76E
:1017A000002182E723003B43002E00D0ABE0002B5A
:1017B00000D1E7E00B00134300D177E6BA18BA4234
:1017C000BF4164187F42E419230200D4F2E07C4B4D
:1017D00017001C40060069E620003843002ED1D1D6
:1017E00000285BD11C00144300D1A8E01C001700A6
:1017F000D8465BE606000024002797E650460B001B
:101800002038C34099465346202B00D195E0402311
:1018100050461B1A99400A43511E8A414B460021EB
:101820001A439FE6002E30D126003E4367D0DB43AB
:101830009A46002B1CD0614EB04260D05346382BE4
:1018400000DD96E01F2B00DD9FE02026F31A260026
:101850009E409C46B34653463E00DE4033005E4603
:101860001E4363469F407B1E9F415346DC403743E7
:10187000BF189742924164185242A418060078E6B5
:1018800027437C1EA741002437E74C4EB04236D098
:1018900080265B4236049A463443CFE71800104353
:1018A00000D103E6B81A84466745AD41E01A6D429F
:1018B000401B050200D42CE6D71BBA4292411C1BE8
:1018C0005242A41AD846F1E51800104300D163E74C
:1018D000F808670707438020E4080003044208D0A3
:1018E000DD08054205D1D208590711430F002C002D
:1018F000D8467B0FE4001C43FF00304ED6E50C00B9
:1019000017000600D2E5002B38D00B00134300D19E
:1019100042E7F808670707438020E4080003044211
:10192000E7D0CB080342E4D1D208490711430F00A6
:101930001C00DEE700270024D5E500216BE7002529
:101940000027F3E54E462500203EF5404B462E008D
:10195000202B2DD04025ED1AAC4027437C1EA741FB
:1019600000243743C9E6802400252403134E0027B2
:10197000DCE527437C1EA741002479E70C00170013
:101980000E4E93E50C00170090E556462300203ECE
:10199000F34099465346202B0ED0402356469B1BBE
:1019A0009C4027437C1EA7414B4600241F435FE712
:1019B0000024D2E71700B2E50024F2E7FF07000099
:1019C000FFFF7FFFF0B557464546DE464E46E0B581
:1019D0004C000E0387B0834692461D008046360BAE
:1019E000640DCF0F002C4FD06F4B9C4235D080231D
:1019F000420F1B04F600134333439946C300984635
:101A00006A4B00269C460023644403932B031B0B64
:101A10009B466B00ED0F50465B0D01955ED0624A10
:101A2000934253D05A46D1008022400F1204024301
:101A30000A4393465246D1005C4A944600226344CE
:101A40003800684084460290E41A16430F2E00D9ED
:101A5000B4E0574BB6009B599F4603003343994669
:101A60006CD100239846023308260393CEE7CB4679
:101A70004146039A0197022A65D1019B4A4C9C4634
:101A80000023002298466BE00300334399464ED072
:101A9000002E00D1BCE1300001F0B0FA03000B3B96
:101AA0001C2B00DDACE11D22D31A5A460100DA409E
:101AB00008398E401300334399465B468B40984665
:101AC00000233C4C0026241A03939FE751465A46B4
:101AD000114329D1002293460232B1E7594601430E
:101AE0001ED05B46002B00D19EE1584601F086FADD
:101AF00003000B3B1C2B00DD8FE102005946083A26
:101B000091408B461D21CB1A5146D9400B005946B6
:101B10000B4351469B469140264B00221B1A8FE7F0
:101B2000002301229B468BE75146032288E70023CE
:101B30009846013304260024039367E70323B14644
:101B400003930C2662E7032A00D15CE2019B012A81
:101B500000D0E4E113409C46002300240022984674
:101B600000211203130B0A0D12051A432305124C10
:101B700040462240134362465B00D2075B08134392
:101B8000190007B03CBC90469946A246AB46F0BD52
:101B9000002380229C4612039846034CE0E7002372
:101BA000014C00229846DBE7FF07000001FCFFFF25
:101BB0009CDE00080DFCFFFFFFFF0F80D94500D918
:101BC00039E100D134E1002346464D469A46013CB6
:101BD0005B460A0E1B021A430B02170C03931304F5
:101BE0001B0C3900280090460193FEF799FA020079
:101BF000019B83465A43280039009146FEF716FBA5
:101C0000350C09040D43A9450DD95B464544013BFC
:101C1000A84500D93AE1A94500D837E102235B4243
:101C20009C464544E3444B46EB1A390018000493A4
:101C3000FEF776FA019B0500434339000498994664
:101C4000FEF7F4FA330409041B0C0B43994509D938
:101C500043446A1E984500D91AE1994500D817E116
:101C6000023D43444A469B1A5A4612042A430399AA
:101C70009346100C0A0C914609045A46090C4E462C
:101C80000D001204120C45430591514372437043F9
:101C900052190E0CB218954203D980256D02AC463C
:101CA0006044150C09041204090C281852188342C8
:101CB00000D2CEE000D1C8E01D1A53469E1AB245AC
:101CC00092415242AB1A9A46984500D117E1390029
:101CD0001800FEF725FA019B0500434339005046E2
:101CE0000493FEF7A3FA04980B04310C19438842BD
:101CF00009D941446B1E884500D907E1884200D8C4
:101D000004E1023D4144049BCB1A180039000493BE
:101D1000FEF706FA019B824643433900049801937B
:101D2000FEF784FA01980B043104090C1943884228
:101D30000DD953464144013B884500D9E8E088422B
:101D400000D8E5E002235B429C464144E244019B0B
:101D50002D04CE1A51462943059D4F462A000B04F7
:101D6000080C1B0C5A4345437B4378435B19170C03
:101D7000FB189D4203D980256D02AC4660441D0CC2
:101D800012041B04120C28189B18864200D293E000
:101D900000D18EE001231943A04BE318002B00DC97
:101DA00099E04A0700D09EE05A46D20106D55A462D
:101DB0009B4B1A4080239346DB00E318994A9342D9
:101DC00068DD0123029A984C1A40002394469846F5
:101DD0000022C5E680224B46120313420AD05B461E
:101DE000134206D11A431203120BAC4688468E4C9E
:101DF000B6E64B461A431203120BBC468A4CAFE6BA
:101E000003005A46283B9A4000239146984657E6DD
:101E1000584601F0F3F8203040E603005246283BD4
:101E20009A400021934677E601F0E8F820305FE61B
:101E3000884500D2C7E64B46DE075D0843465B088F
:101E40001E434346DB079A46C2E60025924500D36F
:101E500033E7039E5946B446E244B245AD416D4274
:101E60004544EB180139984507D2984200D97FE0E4
:101E700000D1BCE01D1A8B461FE79845FAD1039D9F
:101E80005545F2D943468B461D1A16E79B46CAE6CE
:101E90001500E7E65A46C90852070A435B05904613
:101EA0005C0D5A460123029952021940120B8C46CE
:101EB00056E6002B00D16FE746444A1EB04529D9AB
:101EC0001100864200D065E7039A934200D061E793
:101ED00062E7012149420120C21A382A21DD029B12
:101EE00003409C4638E60F220A40042A00D15BE7F3
:101EF0000A00111D914292415242934454E7474BCC
:101F0000E318002BE5DD01225242F2E71D00FAE65C
:101F10009A461CE7B04239D86ED011003AE70293D6
:101F20003AE71F2A3CDC20239B1A0C0058469940B4
:101F300098404B1E99415B46D440D3402043084310
:101F40001A00430709D00F230340042B05D00100DA
:101F5000081D88429B415B42D21813023AD50123E7
:101F6000029A01241A400023944698460022F7E57D
:101F7000022149428C46039DE344AC46E244AA4513
:101F8000AD416D424544ED182D1A96E68A1E03991F
:101F90004D008D42894149424144761803958FE7AF
:101FA0001F204042C31A5846D8400300202A28D098
:101FB00040205D46821A954029434A1E91411943AB
:101FC000072300220B4009D00F2300220B400800FA
:101FD000042BBDD1010053075202120BC90819434B
:101FE000012388460299002419408C46B8E55245E1
:101FF000BED88B46002560E6039D9D42C6D31100E6
:1020000062E70025D8E780225B4612031A43019B52
:102010001203120B9C468846034CA1E5FF03000007
:10202000FFFFFFFEFE070000FF070000F0B54F4670
:102030004646D6465C00C0B51F03DB0F9A46174BD9
:102040000E034D0084468046360B6D0DC90F914638
:102050003F0B640D01209D4208D09C4201D0A54257
:102060000BD01CBC90469946A246F0BD6346334354
:10207000F7D1AC42F5D13A43F3D10120BE42F0D1C1
:10208000C845EED1514507D0002DEAD163461E4325
:102090003000461EB041E4E70020E2E7FF07000001
:1020A000F0B54546DE4657464E46E0B51F033D0BAC
:1020B0002C4F0E034C00AB465D008446360B640D7E
:1020C000C90F90466D0DDB0FBC422AD0254FBD4293
:1020D0002DD0002C0FD13043070081467842784143
:1020E000C0B2002D17D15F463A4314D14B460020B1
:1020F000002B0AD006E0002D02D15846024301D041
:10210000994218D04842012108433CBC9046994668
:10211000A246AB46F0BD0028F2D00120013B184397
:10212000F3E737000743D1D002204042EDE75F4696
:102130001743CED0F8E7AC42E4DC03DA481E0121B5
:102140000843E2E75E45DDD806D000205E45DCD2DC
:102150000123481E1843D8E7C445D3D80020C445FE
:10216000F6D3D2E7FF070000F0B54E464546DE46FF
:1021700057465C00E0B51F03DB0F99462A4B0E0360
:102180004D00C90F8446360B6D0D8B4690463F0BB4
:10219000640D9D4220D0244B9C4222D0002D12D1B0
:1021A000304343424341DBB2002C1FD0002B0CD004
:1021B0004B460120013B034318003CBC9046994626
:1021C000A246AB46F0BD002C16D0CB4517D05B46DF
:1021D000594201230B43EFE7310002230143EBD1C6
:1021E000D9E7390002231143E6D1D7E73A43DDD1DD
:1021F00000230028E0D0EAE73A43E6D1E7E7A5422A
:10220000E5DC05DBBE42E2D807D00023BE42D3D2D4
:102210005946012301390B43CEE7C445D7D80023E3
:10222000C445F5D3C8E7C046FF070000F0B55746E0
:102230004546DE464E46E0B50C0398464E00230B5D
:1022400087B0070092469B46760DCD0F002E6BD0CF
:102250006D4B9E4235D080245B46420F2404DB0048
:1022600014431C43C3009946684BA3469C46002375
:1022700000276644029343461C035A00DB0F504676
:10228000240B520D984600D176E05F4B9A426DD0F8
:102290008023410F1B040B435C49E4008C461C4324
:1022A000C300002062444146B6186940721C019187
:1022B000944607430F2F00D9B0E0554ABF00D259CA
:1022C00097465B460343994600D087E000239B4630
:1022D000023308270293CEE742460192022867D0D4
:1022E000032800D10EE2012800D062E1002300247F
:1022F0000022994601990140CDB2002112030B0D35
:10230000120B1B051343434A240513401C4364006E
:10231000ED0764082C434846210007B03CBC9046BA
:102320009946A246AB46F0BD034399464FD05B4663
:10233000002B00D189E1584600F060FE03000B3B02
:102340001C2B00DD7AE11D22D31A3A0001005C4605
:10235000DA4008398C4013008F4023439B46B9462E
:1023600000232D4E0027361A029384E75346234359
:102370002AD10024022096E75346234320D0002C84
:1023800000D157E1200000F039FE03000B3B1C2B6D
:1023900000DD49E11D21CB1A51460200D9405346C8
:1023A000083A944093400C431B4A121A00207AE7E3
:1023B0000125019B144C1D400023002299469CE7F7
:1023C0000024002201206EE7534603206BE7002320
:1023D0009B4601330427002602934CE703238146E2
:1023E0000C27029347E78022002300251203994619
:1023F000054C82E75C464B4602986FE75C464B46CD
:10240000019502986AE7C046FF07000001FCFFFF44
:10241000DCDE0008FFFF0F800DFCFFFF4A46494647
:10242000170C1A0C1B041B0C08041900000C414368
:102430001500884619007D43794303958946290094
:10244000150045434D44029545462D0CAA46029D74
:102450005544A94506D98A46802149028946CA447D
:1024600051460391290C0491414609042D04090C9D
:1024700088462900250C24044144240C05912100A0
:1024800041438846210079438A4668434146504487
:102490008146080C48446F43824503D98021490294
:1024A00089464F44010C894639004944029141460E
:1024B0000F0404993F0C88460004C019804441462B
:1024C000049159460F0C0904090C884659438A4661
:1024D00039005143894641464A435146090C8B46CF
:1024E0007B43D2185A44934203D980235B029B4614
:1024F000D94451460904090C8A46414661437C434C
:10250000130C12044B445244A1468A463C004146F7
:102510006C434D4351464D440F0C7D19A94503D9D9
:102520008021490288464444049F0399B8464144A7
:102530008B468345804141428846514608042F041A
:10254000000C3F1858460299101889469042924153
:102550004F44BA46524299469346C244D144CB4472
:102560008F42BF41C245894199459B419345924164
:102570007F4249422D0C52420F435B4213437F1965
:10258000FF185B463C19DB0D059A64021C434302AD
:1025900013435D1EAB415A46C00D03435202134321
:1025A000E20156D501205A0803401343E2071343C2
:1025B00064085A48604400284DDD5A0709D00F22AC
:1025C0001A40042A05D01A1D9A429B415B42E41826
:1025D0001300E20104D58020514AC0001440604439
:1025E000504A904200DDE3E60125DB0862071A430A
:1025F0006402019B9146220B4405640D1D407CE65C
:10260000802259461203114208D0144206D12243B7
:102610001203120B45469946434C6EE65B461A433D
:102620001203120B404C68E603005446283B9C40C2
:102630000023B9E600F0E2FC2030A6E60300283BC8
:102640009F400023BB4699468AE600F0D7FC203025
:1026500074E6B446ADE701252A1A382A06DD019B47
:1026600000241D4000230022994646E61F2A21DC53
:1026700020252000AD1A1E00AB40A840D6405D1EAC
:10268000AB4130431843D440430709D00F230340E4
:10269000042B05D00300181D98429B415B42E418AF
:1026A000230221D50125019B01241D400023002286
:1026B000994622E61F2521006D42281AC1400800D4
:1026C000202A1DD05F35AA1A944023435C1EA341E3
:1026D000072503431D400022002D09D00F220024AE
:1026E0001A401800042AD6D1030065076402220BA1
:1026F000DB082B4301259946019B00241D40FCE586
:102700000024E2E7802201251203224301991203EB
:10271000120B0D409946044CEFE5C046FF03000044
:10272000FFFFFFFEFE070000FF070000F0B5464672
:10273000D6464F460C03C0B5CD0F4E00610A440F7C
:102740000C43C1005800400D84468A460F0019030F
:10275000500F490A0143C648760DA846DB0FD20048
:10276000844500D1D8E001204340AB4200D1A6E02F
:102770006046351A002D00DC05E1002810D10B0061
:10278000134300D1D7E06B1E002B00D04BE1534622
:102790009F1ABA458041641A4042241A01261EE05D
:1027A000B34B9E4248D080231B041943382D00DDD3
:1027B00019E11F2D00DD4CE120230F005B1B1000F1
:1027C0009A409F40E840531E9A41E940074317430F
:1027D0005346DF1B611ABA45A44164420C1B230215
:1027E00000D4C5E06402650A002D00D1F6E028009F
:1027F00000F004FC0300083B1F2B00DDE9E0202271
:102800003C00D21A9D40D4409F4025439E4200DDAB
:10281000DBE09E1B731C1F2B00DD0AE12022380029
:10282000D21A290097402C009140D8407A1E974137
:10283000DC40002601430F437B0709D00F233B40B8
:10284000042B05D03B1DBB42BF417F42E4191F0052
:10285000230225D5864B01369E4200D1AFE0854B41
:1028600001251C4043466207FF08640276051743B2
:10287000240B760D1D4000212403230B0C0D7E4AF2
:1028800024051C431440330523435B00ED075B081C
:102890002B43380019001CBC90469946A246F0BD57
:1028A000012543466207FF081743E4081D40704BAB
:1028B0009E4236D024037605240B760DDBE7634673
:1028C000F31A002B00DC94E06046002835D06848FD
:1028D0008642B1D080273F043943382B00DCFDE02D
:1028E0000A43170000217A1E9741574457458041FB
:1028F000091944420C1923023AD55D4B01369E4218
:1029000000D14BE101225B4B1C407B0817401F4369
:10291000E207174364088FE70800104300D024E75C
:1029200021E723003B4300D1B9E180221203144385
:102930002403240B9FE72E007EE70800104300D1FC
:10294000CAE0581E8446002800D0E7E052445245B1
:10295000804164184042241817000126230207D53D
:102960000226CFE764462C4300D1B3E12C00674632
:102970007B0700D062E76307FF081F43012543463A
:10298000E4081D4093E7002D78D1751C6D056D0D91
:10299000012D00DCF2E05046801A8245BF41651AE5
:1029A0007F42ED1B8446280200D48CE05046171A63
:1029B000BA4292410C1B5542651B984614E701250B
:1029C000434600241D40002755E72A4CF61A2C40A8
:1029D00032E73D0028388540002717E7380000F02F
:1029E0000DFB203006E70A43170000217A1E9741AD
:1029F000EEE6002B00D0E5E0731C9C465B055B0D0A
:102A0000012B00DC9FE01A4B9C4500D1C5E05244ED
:102A100052458041641840422418E7075208174382
:102A20006408664608E71248854200D185E01D002B
:102A3000BCE629001F3EF140202B00D17FE0402260
:102A4000D31A9D402F437D1EAF4100240F43002623
:102A50008EE72B000F00203BDF40202D71D040235C
:102A60005D1BA9400A43511E8A4100211743AFE66E
:102A7000FF070000FFFF7FFFFFFF0F80002E3ED00B
:102A8000B34EB44545D0802636046D423443382DCC
:102A900000DDA8E01F2D00DD1FE1202627005046A5
:102AA000761BB740E84007435046B040461EB04151
:102AB000EC403843171ABA4292410C1B5242A41AF6
:102AC000664698468BE6644667462C4300D08BE604
:102AD000002500260027EAE61E00ADE61F2B60DC7D
:102AE0002027F81A0F00844687401000D84007437B
:102AF00060468240501E8241D9401743F5E62600C9
:102B00005046064305D0ED43002DD3D0904EB4453A
:102B1000BDD10C001700664698468DE68C4883426E
:102B20000BD06346D9E6002D00D096E00800104394
:102B300000D1E2E00C0017009846854E7CE60025A7
:102B400080E700218EE7230050460343002E00D08B
:102B5000A8E0002B00D1DEE00B00134300D16BE6B0
:102B60005244524580416418404224181700230201
:102B700000D4FDE6774B66461C405DE625005046D6
:102B80000543002ECFD1002D4FD10C00144300D1AE
:102B9000A0E00C00170098464EE666460024002789
:102BA00085E61F000800203FF8400700202B00D1D9
:102BB0008EE04020C31A99400A43511E8A410021E9
:102BC000174392E6002E14D126005046064362D0E9
:102BD000DB43002B5CD18718974292416418524224
:102BE000A418664687E650462043441EA0410024B0
:102BF00060E7574EB4454ED0802636045B423443DE
:102C0000382B00DD7FE01F2B00DD8BE02026270026
:102C10005046F61AB740D84007435046B040461ECB
:102C2000B0410743DC40BF18D6E70D00154300D183
:102C300002E65046801A8245BF41651A7F42ED1B6D
:102C40008446280200D48DE65046171ABA429241B3
:102C50000C1B5242A41A9846EEE50D00154300D114
:102C60006BE750466707C00807438020E40800036D
:102C7000044207D0CD08054204D12C009846D7085D
:102C800049070F437B0FE4001C43FF00304ED3E5A0
:102C90002F4EB445B4D10C0017006646CCE5002792
:102CA0000024E8E5002B39D00B00134300D144E7A2
:102CB000C008670707438020E40800030442E1D00E
:102CC000CB080342DED1D70849070F431C00D9E7E0
:102CD000002171E700250027E9E52E002700203EAE
:102CE000F740202D2FD04026751BAC405046204386
:102CF000441EA04100243843DCE680240025240340
:102D0000134E0027D3E5504620430700781E874125
:102D10000024BF1860E70C0017008DE50C001700B9
:102D20000B4E89E51E002700203EF740202B0CD0DB
:102D30004026F31A9C4050462043441EA0410743BE
:102D40000024BF1848E70024D0E70024F3E7C0467A
:102D5000FF070000FFFF7FFF30B5134D0A034B0054
:102D6000120B5B0DC90F0024AB4210DD0F4CA342C8
:102D70000FDC80240E4D64032243ED1A1F2D0BDD62
:102D80000C48C31ADA405442002900D11400200034
:102D900030BD094BCC18FAE7084CE840A446634420
:102DA0009A400243EFE7C046FE0300001D04000006
:102DB0003304000013040000FFFFFF7FEDFBFFFF63
:102DC00070B5002830D0C317C4185C40C50F200070
:102DD00000F014F9174B184A1B1AD21A1F2A18DDD3
:102DE000164AD21A9440002224035B05240B5B0D83
:102DF0000021100024030A0D240B12052243104C5D
:102E00001B05224013435B00ED075B082B431900B1
:102E100070BD210091400A000B21081AC4405B05D7
:102E20002403240B5B0DE3E700250023002400228C
:102E3000DEE7C0461E040000330400001304000057
:102E4000FFFF0F804100090E4B1C70B5DBB246023C
:102E5000750AC40F012B14DDE0239B006D07360BB0
:102E6000CB1800210A0D280012051C4D32435B05CA
:102E70002A405B0813435B00E4075B082343190007
:102E800070BD002914D1002D1ED0280000F0B6F826
:102E90000A281CDC0B232A001B1ADA400300153316
:102EA0009D400F4B12031B1A5B05160B5B0DD8E7F9
:102EB000002D06D0320B802636036D071643094BD2
:102EC000CFE7084B0026CCE700230026C9E7030024
:102ED0002A000B3B9A400025E3E7C046FFFF0F8026
:102EE00089030000FF070000F0B54C00640D0B03E0
:102EF000621C450F5B0A52052B43C90FC500520DDA
:102F0000012A28DD3A4AA618FE2E1BDC002E3EDDE3
:102F100080010200501E82416D0F2A43DB001343E3
:102F20005A0704D00F221A40042A00D0043380220A
:102F3000D2041A405AD00136FF2E03D09B015B0AFF
:102F4000F4B201E0FF2400235802E405400AC90757
:102F500020430843F0BD002C07D01D43F2D0802051
:102F6000DB0080040343FF26DAE72B4303D005236D
:102F7000DB08FF2C03D05B025B0AE4B2E4E7002B22
:102F800032D08020C00303435B025B0ADCE73200DF
:102F9000173214DB80221E2712041343BF1B1F2F7E
:102FA0000FDC144A944664442A00A5402E00A34036
:102FB000751EAE41FA40334313430026B0E70024A8
:102FC000D5E702225242961B1A00F240202F09D068
:102FD000094884466444A3402B435D1EAB41002650
:102FE00013439DE70023F7E70023ADE73400BFE775
:102FF00080FCFFFF82FCFFFFA2FCFFFF1C210123DE
:103000001B04984201D3000C10391B0A984201D3CB
:10301000000A08391B09984201D30009043902A2A9
:10302000105C40187047C046040302020101010110
:10303000000000000000000080B586B000AF3B1D1E
:1030400004221A603B1D03225A603B1D00229A6035
:103050003A1D9023DB051100180004F089FB054B95
:1030600000221A7000F070F803001800BD4606B088
:1030700080BDC046D000002080B500AF084B1B7853
:1030800001225340DBB2002B06D0064B180003F0A0
:103090007FFE034B01221A70C046BD4680BDC0466C
:1030A000D00000208400002080B586B000AF78609A
:1030B0001723FB1800221A701F4B1B78002B34D0EB
:1030C0001E4A1F4B1100180003F0F8FE031E28D102
:1030D000194B00221A701723FB1801221A70184B83
:1030E000180003F07BFF0300FB607B6801221A706D
:1030F00004233B6112E0134B3A699200D258FB68FB
:103100009A4203D93B69013B3B6107E03B69DAB274
:103110007B681A701723FB181B7809E03B69002BAA
:10312000E9DC074B180003F087FE1723FB181B7818
:103130001800BD4606B080BDD000002040420F0000
:1031400084000020ACC5000880B584B000AF274BD8
:10315000264A9269802189000A439A61234B9A6921
:1031600080239B0013403B603B68214B214A1A603F
:103170001F4B8022D2055A601D4B00229A601C4BC7
:103180000022DA601A4B00221A61194B00225A61A0
:10319000174B00221A62164B00225A62144BC222AD
:1031A000FF329A62124B01221A63114B06229A6374
:1031B0000F4B180003F0A6FC3B1D02221A603B1DBA
:1031C00001225A603A1D0A4B1100180003F012FF49
:1031D000031E05D0084B180000F082FC002300E01D
:1031E00001231800BD4604B080BDC0460010024057
:1031F0008400002000240140C4C5000880B500AF51
:1032000000F096FEC046BD4680BD000080B582B08D
:1032100000AF3B1D00221A6000F08AF803000A4A42
:10322000381D042108F088FC3A1D084B11001800D5
:1032300000F056FC3B1D0321180000F065FFC0465E
:10324000BD4602B080BDC0460CC6000814C60008CA
:1032500080B586B000AF01F07DF8031E3FD0224B51
:10326000180000F03DFC00233B611023FB18180000
:1032700001F090F803007B613B69002B02D07B6971
:10328000002B01D100232BE03B0018000D231A0076
:10329000002108F0DEFB3A6979693B00180008F06C
:1032A000CFFB39693A00114B180000F019FC3B695B
:1032B000022B02D93B690C2B05D90D4B180000F0ED
:1032C0000FFC00230CE07B691B78422B05D0094BD7
:1032D000180000F005FC002302E0012300E00023B9
:1032E0001800BD4606B080BD24C600083CC60008D4
:1032F0004CC6000878C6000880B500AF084B1B78A4
:103300001A00084B1B781B021A43074B1B781B043F
:103310001A43064B1B781B0613431800BD4680BD9D
:10332000ACF7FF1FADF7FF1FAEF7FF1FAFF7FF1F93
:1033300080B582B000AF064B7B607B680C21180023
:1033400000F05EFB03001800BD4602B080BDC04621
:10335000ACF7FF1F90B5A5B000AF786039607B680F
:103360001B781800FDF7D8FF031C181CFFF76AFD37
:103370000022D24BFEF726FB03000C0018002100B0
:103380000022CF4BFEF752FF03000C001800210073
:10339000FFF7AAFD031C8C22BA1813600023002437
:1033A0008022BA18136054600023C64CBB67FC67C8
:1033B0008C23FB181B687B67786FFFF743FDBA6FA0
:1033C000FB6FFDF739F8031E05D0786FFFF73AFD64
:1033D00003000C0001E0BB6FFC6FBB66FC66BA6EBD
:1033E000FB6E8021791808684968FDF739F8031EDB
:1033F00004D08023FB185C681B6801E0BB6EFC6E88
:1034000018002100FFF770FD031C8C22BA1813600E
:10341000002300243B667C660023AB4CBB65FC6547
:103420005723FB187A6852781A705723FB181B78B9
:103430001800FFF7C5FCBA6DFB6DFCF7FDFF031E1E
:1034400008D05723FB181B781800FFF7B9FC0300BE
:103450000C0001E0BB6DFC6DBB64FC64BA6CFB6CE2
:10346000386E796EFCF7FCFF031E02D03B6E7C6E5B
:1034700001E0BB6CFC6C18002100FFF735FD031C5C
:103480007B6400230024BB63FC6300238E4C3B63FE
:103490007C632F23FB187A6892781A702F23FB180D
:1034A0001B781800FFF78CFC3A6B7B6BFCF7C4FFB2
:1034B000031E08D02F23FB181B781800FFF780FC91
:1034C00003000C0001E03B6B7C6B3B627C623A6A60
:1034D0007B6AB86BF96BFCF7C3FF031E02D0BB6BB2
:1034E000FC6B01E03B6A7C6A18002100FFF7FCFCE2
:1034F000031CFB617549786CFDF7F2F9031C7B64D2
:103500007249F869FDF7ECF9031CFB610021786C46
:10351000FCF7C6FF031E20D06D49F869FDF7D0FB0C
:10352000031C181CFFF78EFC03000C001800210080
:1035300008F0DAFF03000C0018002100FDF720F866
:103540000300DAB23B681A703B681A783B685A701D
:103550003B685A783B689A702CE25E498C23FB18D2
:103560001868FDF7BDF9031C8C22BA1813608C2370
:10357000FB181868FFF766FC03000C001800210018
:1035800008F01AFF03000C0018002100FFF7E4FB0D
:103590000300BB61B869FDF76FFE031C191C8C2387
:1035A000FB181868FDF7ACFC031C7B61796CFE20EE
:1035B0008005FDF7A5FC031CF969181CFDF780FBCD
:1035C000031C3B617969786CFDF77AFB031C191CBD
:1035D000FE208005FDF794FC031CF969181CFDF71B
:1035E0006FFB031CFB607969FE208005FDF788FCFA
:1035F000031C796C181CFDF763FB031C191CFE20CF
:103600008005FDF77DFC031CF969181CFDF758FBCC
:10361000031CBB60BB69042B00D983E1BB699A0022
:103620002D4BD3181B689F462949F869FDF748FBC5
:10363000031C181CFFF706FC03000C0018002100F7
:1036400008F052FF03000C0018002100FCF798FF5F
:103650000300DAB23B689A701D49B868FDF730FB89
:10366000031C181CFFF7EEFB03000C0018002100E0
:1036700008F03AFF03000C0018002100FCF780FF5F
:103680000300DAB23B685A7011493869FDF718FB3C
:10369000031C181CFFF7D6FB03000C0018002100C8
:1036A00008F022FF03000C0018002100FCF768FF5F
:1036B0000300DAB23B681A707CE1C04600E06F405C
:1036C0000070764000807640000059400000C842FB
:1036D00000007F4300007042A8C60008B749F868A0
:1036E000FDF7EEFA031C181CFFF7ACFB03000C00FF
:1036F0001800210008F0F8FE03000C00180021005B
:10370000FCF73EFF0300DAB23B689A70AB49F869F8
:10371000FDF7D6FA031C181CFFF794FB03000C00FE
:103720001800210008F0E0FE03000C001800210042
:10373000FCF726FF0300DAB23B685A709F493869EC
:10374000FDF7BEFA031C181CFFF77CFB03000C00FE
:103750001800210008F0C8FE03000C00180021002A
:10376000FCF70EFF0300DAB23B681A7022E19349BE
:103770003869FDF7A5FA031C181CFFF763FB03006B
:103780000C001800210008F0AFFE03000C00180028
:103790002100FCF7F5FE0300DAB23B689A70874916
:1037A000F869FDF78DFA031C181CFFF74BFB0300AB
:1037B0000C001800210008F097FE03000C00180010
:1037C0002100FCF7DDFE0300DAB23B685A707B494A
:1037D000B868FDF775FA031C181CFFF733FB0300EC
:1037E0000C001800210008F07FFE03000C001800F8
:1037F0002100FCF7C5FE0300DAB23B681A70D9E07D
:103800006E493869FDF75CFA031C181CFFF71AFBB8
:1038100003000C001800210008F066FE03000C00F5
:1038200018002100FCF7ACFE0300DAB23B689A7086
:103830006249F868FDF744FA031C181CFFF702FB05
:1038400003000C001800210008F04EFE03000C00DD
:1038500018002100FCF794FE0300DAB23B685A70AE
:103860005649F869FDF72CFA031C181CFFF7EAFA11
:1038700003000C001800210008F036FE03000C00C5
:1038800018002100FCF77CFE0300DAB23B681A70D6
:1038900090E04A49B868FDF713FA031C181CFFF7BB
:1038A000D1FA03000C001800210008F01DFE0300EF
:1038B0000C0018002100FCF763FE0300DAB23B683D
:1038C0009A703E493869FDF7FBF9031C181CFFF795
:1038D000B9FA03000C001800210008F005FE0300EF
:1038E0000C0018002100FCF74BFE0300DAB23B6825
:1038F0005A703249F869FDF7E3F9031C181CFFF709
:10390000A1FA03000C001800210008F0EDFD0300EF
:103910000C0018002100FCF733FE0300DAB23B680C
:103920001A7047E02549F869FDF7CAF9031C181C0D
:10393000FFF788FA03000C001800210008F0D4FDFE
:1039400003000C0018002100FCF71AFE0300DAB295
:103950003B689A7019493869FDF7B2F9031C181CC5
:10396000FFF770FA03000C001800210008F0BCFDFE
:1039700003000C0018002100FCF702FE0300DAB27D
:103980003B685A700D49F868FDF79AF9031C181C3A
:10399000FFF758FA03000C001800210008F0A4FDFE
:1039A00003000C0018002100FCF7EAFD0300DAB266
:1039B0003B681A70BD4625B090BDC04600007F43ED
:1039C00080B582B000AF78607B689B781A000B4BA3
:1039D0009A5C7B689A707B685B781A00074B9A5CEC
:1039E0007B685A707B681B781A00044B9A5C7B6872
:1039F0001A70C046BD4602B080BDC04634DB000828
:103A000080B586B000AF786039600B23FB181D22AB
:103A10001A701723FB1800221A7000233B6132E052
:103A20003B697A68D31819781723FB181722BA183C
:103A300012784A401A700023FB601EE01723FB181F
:103A40001B785BB2002B0EDA1723FB181B785B0088
:103A50005AB20B23FB181B785BB253405AB21723A0
:103A6000FB181A7006E01723FA181723FB181B78A7
:103A7000DB181370FB680133FB60FB68072BDDDD8F
:103A80003B6901333B613A693B689A42C8DB1723C3
:103A9000FB181B781800BD4606B080BD80B582B00B
:103AA00000AF0200FB1D1A70044BF91D04480122EF
:103AB00007F05CFAC046BD4602B080BD102700008A
:103AC000040E002080B582B000AF78607A68034BA6
:103AD000D3181800BD4602B080BDC046BCC6000861
:103AE0000FB490B595B000AF00233B640123FB6396
:103AF0006023FB18BB63CCE03B6E1B78252B08D002
:103B00003B6E1B781800FFF7C9FF3B6E01333B6625
:103B1000BFE03B6E01333B663B6E1B78732B18D1C5
:103B2000FB6B5A1CFA639B00BA6BD3181B68FB64CF
:103B300007E0FB6C1B781800FFF7B0FFFB6C01334C
:103B4000FB64FB6C1B78002BF3D13B6E01333B66AF
:103B50009FE03B6E1B78642B37D1FB6B5A1CFA63DA
:103B60009B00BA6BD3181B68BB6400233B643C6C9E
:103B7000631C3B64BB6C0A211800FCF757FB0B006D
:103B800019003B1DA200D150BB6C0A211800FCF7A4
:103B9000C7FA0300BB64BB6C002BE8D10EE03B6CA2
:103BA000013B3B643B1D3A6C9200D3581800FFF771
:103BB00089FF03001B781800FFF770FF3B6C002B98
:103BC000EDD13B6E01333B6663E03B6E1B78632BAC
:103BD00013D1FB6B5A1CFA639B00BA6BD3181A689B
:103BE0003723FB181A703723FB181B781800FFF7D0
:103BF00055FF3B6E01333B664BE03B6E1B78782BE9
:103C000044D1FB6B5A1CFA639B00BA6BD3181B6838
:103C10007B6400233B643B6C5A1C3A647A6C0F2132
:103C200011403A1D9B0099507B6C1B097B647B6C97
:103C3000002BF0D13B6C0122134006D03B6C5A1C88
:103C40003A643A1D9B00002199503B6C012B16D819
:103C50003B6C5A1C3A643A1D9B00002199500EE0BF
:103C60003B6C013B3B643B1D3A6C9200D3581800FF
:103C7000FFF728FF03001B781800FFF70FFF3B6CCE
:103C8000002BEDD13B6E01333B6602E03B6E002B17
:103C900005D03B6E1B78002B00D02DE700E0C0461E
:103CA000C046BD4615B090BC08BC04B01847000023
:103CB00080B586B000AF1A4B194AD26902210A4377
:103CC000DA61174BDB69022213407B607B68154B7E
:103CD000154A1A60134B20225A60124B00229A6038
:103CE000104B80225201DA600E4B00221A610D4BFC
:103CF000180006F0E9F80823FB18802252011A6028
:103D00000823FA18074B1100180006F0F7FB054BC3
:103D10001B68022252421A61C046BD4606B080BDF1
:103D200000100240380D00200004004080B58EB025
:103D300000AF3E4B3E4A1A603C4B00225A603B4B60
:103D400000229A60394B3B4ADA60384B00221A61F4
:103D5000364B00225A61354B80229A61334B180052
:103D600006F0B2F8031E04D0334B1800FFF7B8FE7C
:103D700058E02E4B180006F017F9031E04D02E4B06
:103D80001800FFF7ADFE4DE01C23FB1860221A60FF
:103D90001C23FB184E22FF325A601C23FB18002202
:103DA0009A601C23FB180022DA601C23FB180022F7
:103DB0001A611C23FB1800225A611C23FB180022E5
:103DC0009A611C23F918194B0022180006F0DEFA3C
:103DD000031E04D0184B1800FFF782FE22E03B00C0
:103DE00000221A603B0000225A603B0000229A60C9
:103DF0003B000022DA603B0000221A613B00802277
:103E000092015A613B0000229A613A00074B11006F
:103E1000180006F0D5FF031E04D0074B1800FFF76B
:103E20005FFEC046BD460EB080BDC046E00100202A
:103E30000048014035050000D0C6000880B584B0B8
:103E400000AF7860134BDB6AFB60134B01221A70E2
:103E5000124B180006F07EF80E4B00225A620D4BF2
:103E60007A68DA620D4B1B68022252421A610B4BD0
:103E7000180006F055F800E030BF074B1B78DBB2A6
:103E8000012BF9D0034BFA68DA62C046BD4604B094
:103E900080BDC04600040040D6000020380D002040
:103EA00080B500AF074B00225A62074B1B68022205
:103EB00052421A61044B180006F032F8C046BD4663
:103EC00080BDC04600040040380D002080B500AF22
:103ED000034B180006F03EF8C046BD4680BDC04604
:103EE000380D002080B582B000AF78607A680D4B45
:103EF0009A4212D1FFF7EAFF0B4B1B78DBB2002B83
:103F000003D10A4BFE221A7007E0074B1B78DBB285
:103F1000012B02D1044B00221A70C046BD4602B0EC
:103F200080BDC046380D0020D6000020D5000020FE
:103F300080B586B000AF184B1B78002B27D13B1DF6
:103F400008221A603B1D154A5A603B1D00229A60E8
:103F50003A1D9023DB051100180003F009FC002234
:103F60000021062003F04EFB062003F061FBFFF763
:103F70009FFEFFF7DBFE0A2002F0ACFD084B00229B
:103F80001A7000F099F9044B01221A7000E0C04643
:103F9000BD4606B080BDC046D400002000003110F0
:103FA000DD01002080B586B000AF3B1D08221A60FD
:103FB0003B1D0A4A5A603B1D00229A603A1D90231D
:103FC000DB051100180003F0D3FBFFF7AFFE0A205A
:103FD00002F080FDC046BD4606B080BD0000311035
:103FE00080B582B000AF0200FB1D1A70FB1D1B786C
:103FF000002B05D1094B0021180006F009F808E054
:10400000FB1D1B78012B04D1044B0021180006F086
:1040100043F8C046BD4602B080BDC046E001002066
:1040200080B500AF0B4B0021180005F0F1FFC8234D
:104030009B001800FFF702FF064B0021180006F056
:104040002BF8C8239B001800FFF7F8FEC046BD46BA
:1040500080BDC046E001002080B500AF0B4B0021C1
:10406000180005F0D5FFC8235B001800FFF7E6FE37
:10407000064B0021180006F00FF8C8235B0018005B
:10408000FFF7DCFEC046BD4680BDC046E001002013
:1040900080B500AF0B4B0021180005F0B9FFC82315
:1040A0005B001800FFF7CAFE064B0021180005F060
:1040B000F3FF9623DB001800FFF7C0FEC046BD46A5
:1040C00080BDC046E001002080B584B000AF020092
:1040D000FB1D1A700723FB600FE0FB1D1A78FB68BD
:1040E0001A4113000122134002D1FFF7B5FF01E08E
:1040F000FFF7CEFFFB68013BFB60FB68002BECDAAF
:10410000C046BD4604B080BD80B584B000AF7860C5
:10411000396000F0ABFA03001A00244B1A7000F06B
:10412000F9F8FFF77DFF0F23FB1800221A701FE03C
:104130000F23FB181B787A68D3181B781800FFF739
:10414000C3FF1A4B1B78D8B20F23FB181B787A6871
:10415000D3180122190000F035FA03001A00134B9E
:104160001A700F23FB181A780F23FB1801321A70EC
:104170000F23FB181A783B689A42D9D30B4B1B7854
:10418000DBB2180000F078FA03001A00074B1A702F
:10419000064B1B78DBB21800FFF796FFFFF740FFD6
:1041A00000F08AF8C046BD4604B080BDDC010020A6
:1041B00080B584B000AF0200FB1D1A702C4B1B6849
:1041C000DB08FB602A4B1B6807221340BB60FB68BF
:1041D000FF2B03D9274BFD221A7046E0FB1D1B78ED
:1041E000002B17D1244AFB68D3181B78DBB25BB2D3
:1041F000BA6807218A1A012191400A0052B2D243BB
:1042000052B213405BB2D9B21B4AFB68D3180A1CE6
:104210001A7014E0184AFB68D3181B78DBB25AB244
:10422000BB680721CB1A012199400B005BB21343F5
:104230005BB2D9B2104AFB68D3180A1C1A70BB686B
:10424000072B0DD10D4B1B78D8B2FA680A4BD31847
:104250000122190000F0B6F903001A00074B1A708A
:10426000034B1B685A1C024B1A60BD4604B080BD4C
:10427000D8010020D5000020D8000020DC0100205B
:1042800080B582B000AF0A4B1B68DB087B60094B2E
:104290001B785BB2052B06D17B68013B002B02DD4E
:1042A0007B68013B00E000231800BD4602B080BDE2
:1042B000D8010020D500002080B500AF0F4B1B783F
:1042C00001225340DBB2002B15D00D4B1800FFF735
:1042D00007FC0C4B00221A600B4B00221A700B4B90
:1042E00006225A61062003F0A3F9044B01221A703A
:1042F000074B00221A70C046BD4680BDDD0100207C
:10430000D8C60008D8010020D500002000040140D4
:10431000DE01002080B500AF0B4B1B78002B0ED0C8
:104320000A4B1800FFF7DCFB094B00221A7006202D
:1043300003F08EF9044B00221A70012300E00023E1
:104340001800BD4680BDC046DD010020E8C600085B
:10435000D500002080B500AF0B4B1B78002B07D099
:104360000A4B1800FFF7BCFBFFF7D4FFFFF7A4FFD1
:10437000074B1B785BB2052B01D1012300E0002322
:104380001800BD4680BDC046DE010020F8C600080A
:10439000D500002080B584B000AF7860FFF770FFD3
:1043A00003001A007B681A60074BFB60074B18007C
:1043B000FFF796FBFFF7AEFFFFF77EFFFB681800E5
:1043C000BD4604B080BDC046D800002018C7000814
:1043D00080B582B000AF684B5B6A7B609023DB05E1
:1043E0000821180003F038FB03003B60FFF76EFD67
:1043F0007B68C8337B60614B1B785BB2052B00D9AF
:1044000087E09A005E4BD3181B689F463B68002BE1
:1044100000D082E0FFF744FD584B01221A707CE087
:104420003B68012B11D17A68C8239B009A420CD9B2
:10443000544B00221A6000F019F903001A00524B85
:104440001A704E4B02221A706AE04C4B00221A700E
:1044500066E03B68002B05D1FFF722FD474B0322A6
:104460001A705DE0454BFF221A7059E03B68002B43
:1044700003D1424BFF221A7052E07A68C8239B0096
:104480009A4219D9404B1B78DBB2180000F0F4F8BF
:1044900003001A003C4B1A703B4B1B78DBB2002B1D
:1044A00003D1364B05221A7002E0344BFC221A70FD
:1044B000364B00221A7033E07A68C8235B009A42B8
:1044C00005D9FFF7EDFC2D4B04221A7028E02B4B89
:1044D000FF221A7024E03B68002B20D1FFF7E0FC9C
:1044E000264B03221A707A689623DB009A4203D97E
:1044F0000120FFF75DFE12E07A68C8235B009A4254
:1045000003D90020FFF754FE09E01C4BFF221A706C
:1045100005E0C04604E0C04602E0C04600E0C046F8
:10452000164B1B785BB2002B12DA194B1800FFF701
:10453000D7FAFFF7CBFC134B00221A600F4B002277
:104540001A70124B01221A70124B01221A700EE0DF
:104550000A4B1B785BB2052B09D10C4B1B7801224F
:104560005340DBB2002B02D0062003F071F8C046A6
:10457000BD4602B080BDC04600040040D50000200A
:1045800030C70008D8010020DC010020DD01002038
:104590002CC70008DE01002080B582B000AF020009
:1045A000BB1D1A80BB1D1B88082B05D1044B1B7833
:1045B000002B01D0FFF70CFFC046BD4602B080BD06
:1045C000DD01002080B586B000AFB9607A600F23AE
:1045D000FB18021C1A70BB687B6138E00F23FB18C4
:1045E0001B781B09DAB27B691B781B09DBB25340CD
:1045F000DBB23B613B690F2213401B4AD35C5AB2CA
:104600000F23FB181B781B015BB253405AB20F23D8
:10461000FB181A700F23FB181B781B09DAB27B6991
:104620001B785340DBB23B613B690F2213400E4ABB
:10463000D35C5AB20F23FB181B781B015BB25340AB
:104640005AB20F23FB181A707B6901337B617B68B8
:104650005A1E7A60002BC1D10F23FB181B7818005B
:10466000BD4606B080BDC04648C7000880B500AF53
:1046700000231800BD4680BD80B582B000AF0200A7
:10468000FB1D1A70FB1D1B781800BD4602B080BDD3
:1046900080B500AF00F022F803001A000123534058
:1046A000DBB2002B06D0FA235B00180002F012FAEE
:1046B00002F0DEFF00F060FB034B1800FFF710FA7A
:1046C000C046BD4680BDC04624CF000880B500AFBF
:1046D00000F004F8C046BD4680BD000090B597B01C
:1046E00002AF3B00180049231A00002107F0B1F97E
:1046F000394B1800FFF7F4F9384BFF221A70384B8A
:10470000B4220021180007F0A4F900F059FB3B0087
:1047100000221A703B0001225A704B23FC183A0009
:104720003048FA239B0000930223782103F080FA9B
:10473000030023704B23FB181B78002B09D04B235D
:10474000FB181A78284B11001800FFF7C9F900234D
:104750003EE00023FB6411E0FB6CDBB20321180098
:1047600000F084FA03001A0001235340DBB2002B4F
:1047700001D000232CE0FB6C0133FB64FB6C232B8A
:10478000EADD00F0CBFA3B004A221A703B0000221F
:104790005A704B23FC183A001248FA239B000093EE
:1047A0000223782103F044FA030023704B23FB1803
:1047B0001B78002B09D04B23FB181A780B4B1100E8
:1047C0001800FFF78DF9002302E000F011F8012333
:1047D0001800BD4615B090BD34CF00084C02002033
:1047E00054020020B80D002050CF000878CF0008F8
:1047F00080B500AF054BB4220021180007F029F95D
:1048000000F08CFAC046BD4680BDC0465402002070
:1048100080B584B000AF0200FB1D1A70BB1D0A1CDE
:104820001A70FB1D1B78022B0DD0032B10D0012B0F
:1048300004D00F23FB1800221A700EE00F23FB1880
:1048400001221A7009E00F23FB1802221A7004E0FB
:104850000F23FB1803221A70C04600F01FF8002334
:10486000BB600BE0BB68DAB20F23FB181B781900A2
:10487000100000F0FBF9BB680133BB60BB68232B61
:10488000F0DD00F012F8044BBA1D12781A70C04621
:10489000BD4604B080BDC0464C02002080B500AFCC
:1048A00000F042FBC046BD4680BD80B500AF00F0C1
:1048B0002FFBC046BD4680BD80B584B000AF02006E
:1048C0003960FB1D1A70FB1D1B782F2B07D9FB1DB0
:1048D0001A78204B11001800FFF702F937E01E4B41
:1048E0001A783B689A700C23FA183B68110018007C
:1048F000FEF730FD0C23FB181800FFF761F8FB1DD5
:104900001A78164913005B009B189B005B580C2219
:10491000BA1892781A70FB1D1A78104913005B00C0
:104920009B189B00CB1804331B680C22BA185278D2
:104930001A70FB1D1A78094913005B009B189B0035
:10494000CB1808331B680C22BA1812781A70BD46AF
:1049500004B080BDCCCF00084C020020D805002058
:1049600080B500AF474B1B79052B00D97DE09A003D
:10497000454BD3181B689F46444B00221A70414B8D
:1049800000225A703F4B00225A803E4B02221A717D
:1049900075E03E4B1B78002B02D1042000F022F979
:1049A0003A4B1B78022B65D1384B00221A70354BDD
:1049B00005221A715EE0354B1B78002B04D1314B78
:1049C0005B78180000F00EF9304B1B78022B53D1A6
:1049D0002E4B00221A702B4B03221A714CE0294BEC
:1049E0005B781A002A4B9200D058264B5B781A004D
:1049F000284B5200D35A0022190003F04AF8214BE9
:104A000004221A713BE01F4B5B8801339AB21D4BA5
:104A10005A801C4B5B88012B30D91A4B00225A80DC
:104A2000184B05221A7129E0164B5B781A00184BB7
:104A30009200D058134B5B781A00164B5200D35A91
:104A40000122190003F025F80E4B5B780133DAB22E
:104A50000C4B5A700B4B5B78032B02D9094B00228D
:104A60005A70084B02221A7109E00B4B1800FFF72D
:104A700037F804E0C04602E0C04600E0C046C04649
:104A8000BD4680BD4C02002030D00008200200202E
:104A900014CF00080CCF00080CD0000880B582B0FD
:104AA00000AF7860034B02221A70C046BD4602B0C8
:104AB00080BDC0462002002080B584B000AF020057
:104AC000FB1D1A700023FB6020E0FB1D1A78FB68B9
:104AD0009A420CD1114BFA689200D058104BFA68E8
:104AE0005200D35A0022190002F0D3FF0BE00B4B07
:104AF000FA689200D0580A4BFA685200D35A012241
:104B0000190002F0C6FFFB680133FB60FB68032B52
:104B1000DBDDC046BD4604B080BDC04614CF0008F2
:104B20000CCF000880B582B000AF3A60FB1D021CBC
:104B30001A70BB1D0A1C1A70FB1D1B78032B03D8AF
:104B4000BB1D1B780B2B08D9FB1D1978BB1D1A78D0
:104B5000224B1800FEF7C4FF3CE0FB1D1978BB1D7B
:104B60001B781F481A005200D21893001A000B003D
:104B7000DB005B181B01D3181B583A6892781A7037
:104B8000FB1D1978BB1D1B7815481A005200D2185E
:104B900093001A000B00DB005B181B01D318C3182D
:104BA00004331B683A6852781A70FB1D1978BB1DD4
:104BB0001B780B481A005200D21893001A000B0001
:104BC000DB005B181B01D318C31808331B683A6855
:104BD00012781A70BD4602B080BDC046A4CF00084E
:104BE0000803002090B585B000AF7860194B012212
:104BF0001A70184B2522002199547A681300DB00A3
:104C00009B189B00144A9918144B2422180006F094
:104C100017FF134B01221A700F23FC180D4A11487D
:104C20002623782103F018F9030023700F23FB18C3
:104C30001B78002B09D00F23FB181A780A4B1100A0
:104C40001800FEF74DFF002300E001231800BD46C9
:104C500005B090BD2402002054020020250200204F
:104C600020020020B80D002048D0000890B587B081
:104C700002AF0200FB1D1A70BB1D0A1C1A700C2328
:104C8000FB1800221A80FB1D1B782633DAB20C2396
:104C9000FB181A70BB1D1B785B005BB2012213432B
:104CA0005BB2DAB20C23FB185A700F23FC180C23EA
:104CB000FA180F48FA239B0000930223782102F090
:104CC000B7FF030023700F23FB181B78002B09D0BC
:104CD0000F23FB181A78074B11001800FEF700FF8E
:104CE000002300E001231800BD4605B090BDC0467A
:104CF000B80D00205CD0000880B582B000AF020083
:104D0000FB1D1A70FB1D1B781800FFF76BFF00F0EE
:104D100005F8C046BD4602B080BD000090B585B024
:104D200002AF3B1D00221A803B1D25221A703B1D3D
:104D300000225A70FC1D3A1D0D48FA239B00009377
:104D40000223782102F074FF03002370FB1D1B78FF
:104D5000002B08D0FB1D1A78064B11001800FEF737
:104D6000BFFE002300E001231800BD4603B090BD44
:104D7000B80D002074D0000880B500AF0E4B0F4A6C
:104D80001A600D4B64225A600B4B00229A600A4B4A
:104D9000F122DA60084B00221A61074B00225A61A7
:104DA000054B00221A77044B180005F08DF800F02F
:104DB000AFF8C046BD4680BD780D00200020004001
:104DC00080B584B000AF4B4B1800FEF789FE00237E
:104DD000FB6083E0FA6813005B009B185B00464AA7
:104DE0009B18BB60BB681B781A00BB685B78190016
:104DF0001300DB009B189B005A18404BD3187B60B4
:104E0000BB685B791A00BB689B7819003C4B5B5C04
:104E1000D3183B60BB681B79012B1ED0022B3BD003
:104E2000002B58D1BB689B781800BB68DB783549EC
:104E30001A005200D21893001A000300DB001B185E
:104E40001B01D3187A685A502F493A6813005B0047
:104E50009B189B007A685A503DE0BB689B7818000D
:104E6000BB68DB7827491A005200D21893001A0059
:104E70000300DB001B181B01D318CB1804337A681E
:104E80001A6021493A6813005B009B189B00CB18FD
:104E900004337A681A601EE0BB689B781800BB6810
:104EA000DB7818491A005200D21893001A00030048
:104EB000DB001B181B01D318CB1808337A681A6063
:104EC00011493A6813005B009B189B00CB1808330C
:104ED0007A681A60C046FB680133FB60FB688F2B61
:104EE00000DC77E7094B1800FEF7FAFDC046BD4627
:104EF00004B080BD94D0000864C7000854020020AC
:104F000060C7000808030020D8050020B8D00008BA
:104F100080B500AF034B180005F002F8C046BD464F
:104F200080BDC046780D002080B500AF034B18004F
:104F300005F010F8C046BD4680BDC046780D002083
:104F400080B500AF00F00AF9064B01221A72FEF795
:104F500073F8FEF791F8012006F06EFCC046BD46DE
:104F600080BDC0461808002080B584B000AF7860CE
:104F70007B68180006F0B4FB1F4B5B687A68D31A95
:104F80001E4A934235D91C4B1B68002B05D11A4B86
:104F900001221A60FEF770F82BE00F23FB181800AF
:104FA000FEF782F8031E24D0134B00221A60124B26
:104FB0007A685A60104B1A7A0F23FB181B789A42B2
:104FC00017D00F23FB181A780B4B1A720F23FB18FC
:104FD0001B7819000A4B04221800FEF781FD0F23ED
:104FE000FB181B781A00074B9B5CFF211800FFF78A
:104FF0000FFCBD4604B080BD18080020102700003B
:1050000080D8000878D8000890B587B000AFB960A4
:1050100011007B600F23FB18021C1A700E23FB1873
:105020000A1C1A700E23FB181B78002B2AD006F0DE
:1050300047FD02000E23FB181B7819001000FBF738
:10504000DFF90B001A001623FB181A801623FB1831
:105050001A881623FB1800215B5E002B00DA01334F
:105060005B101BB29BB2D31A9AB21623FB181A809C
:10507000BB681A781623FB181B88DBB2D318DAB288
:10508000BB681A700F23FB181878BB681B781900CF
:105090001523FC187B681A0006F006FC0300237039
:1050A0001523FB181B78002B07D01523FB181A7843
:1050B000044B11001800FEF713FDC046BD4607B0B3
:1050C00090BDC0469CD8000890B587B000AFB960CD
:1050D00011007B600F23FB18021C1A700E23FB18B3
:1050E0000A1C1A700F23FB181B78112B08D90F23E9
:1050F000FB181A78174B11001800FEF7F1FC25E099
:1051000000237B6115E00F23FB181A781249130066
:10511000DB009B18CA187B69D31818787C680E23AB
:10512000FB181A78B9682300FFF76EFF7B6901331B
:105130007B610F23FB181A7807491300DB009B18CB
:10514000CA187B69D3181B78FF2BDCD1BD4607B08A
:1051500090BDC046B4D80008D0D7000890B58DB037
:1051600000AF0C23FB18134A13CA13C313CA13C38B
:1051700003CA03C33B1D104A03CA03C32F23FC18F1
:105180003A1D0C23FB181100180006F053FA030017
:1051900023702F23FB181B78002B07D02F23FB181D
:1051A0001A78064B11001800FEF79AFCBD460DB0A8
:1051B00090BDC046E8D8000808D90008D0D800083B
:1051C00080B500AFFFF764FA044B302200211800CD
:1051D00006F03FFC00231800BD4680BD24080020D7
:1051E00080B584B000AF786039603B68DAB20C23D8
:1051F000FB181A700C23FB18FF225A700C23FB18A3
:10520000FF229A707B68DBB20C22BA1811001800DA
:10521000FFF752FBC046BD4604B080BD90B587B0D5
:1052200000AFF860B9607A603B6000233B611623F1
:10523000FB1800221A707A68BB689A4215D91723A6
:10524000FB1801221A707A68BB68D21AB9687B68A9
:10525000CB1AFF339A421DD91623FB18FF221A706E
:105260001723FB1800221A7014E01723FB180022E2
:105270001A70BA687B68D21A7968BB68CB1AFF3398
:105280009A4207D91623FB18FF221A701723FB181E
:1052900001221A701723FB181B78002B20D016232D
:1052A000FB181A787B68D3181800FCF735F8041C33
:1052B000B868FCF731F8031C191C201CFBF720FE12
:1052C000031CB96A181CFBF7FBFC031C181CFBF73A
:1052D0003FF90200BB68D3183B613B69DBB227E0B2
:1052E000B868FCF719F8041C1623FB181B78180083
:1052F000FCF712F8031C191C201CFBF75FF9031CB8
:105300001C1C7868FCF708F8031C191C201CFBF710
:10531000F7FD031CB96A181CFBF7D2FC031C181C10
:10532000FBF716F90200BB689B1A3B613B69DBB2D5
:105330001800BD4607B090BDB0B500AF01F084FBCA
:1053400000F076FB234B1C68FDF7D6FF0500FDF748
:10535000EFFF030020482A002100FEF7C1FBFDF704
:10536000CBFF0300180006F07DFB01F051F8031E8F
:1053700004D01A4B01221A7001F0C4F9174B002215
:105380001A70FFF7DDFD00F02FF800F0C3F8144BA2
:105390001B68002B10D001F093FB0200104B1B6820
:1053A000D31A962B08D90E4B00221A600D4B180009
:1053B000FEF796FB00F0E6F801F082FB0300180010
:1053C00000F0ECF801F07CFB03001800FFF7CCFDC7
:1053D000DDE7C046B8DD00081CD90008A80C002095
:1053E000A40C002060D9000880B586B000AF06F09C
:1053F00067FB02000F23FB181A700E23FB180F2205
:10540000BA1812787F321A70264B1800FEF768FB24
:1054100001237B6100233B6124E0234B1B687A69F5
:10542000134003D00F23FB181B7802E00E23FB1858
:105430001B783A1D13703B1D64225A703B1D642279
:105440009A703B69D8B2FA235B00391D0022FFF73E
:10545000DBFD3B691F2B02D87B695B007B613B69ED
:1054600001333B613B692F2BD7DD01F029FB0300A2
:10547000BB6005E001F024FB0300180006F030F9E2
:1054800001F01EFB0200BB68D21AF423FF339A42DC
:10549000F0D9064B1800FEF723FBC046BD4606B008
:1054A00080BDC04670D90008B8DD000890D900085A
:1054B00080B582B000AF0200FB1D1A70124B1B7842
:1054C000002B05D0FB1D1B78180001F0DFF917E059
:1054D0000E4B1B78002B06D0FB1D1B78002B0FD02A
:1054E00001F0A2FA0CE00A4B1B68002B08D1FB1D4F
:1054F0001B78002B04D001F0E3FA0200044B1A6081
:10550000C046BD4602B080BDA80C0020A90C0020FA
:10551000A40C0020B0B500AF7F22144B5A750120B7
:1055200000F0F8F902231C00114B180000F0D6F926
:10553000030063431A000D4B1A610C4B1B690D48A5
:105540000122012100F0FAFE0B4B0C48012201213F
:1055500000F0F4FEFDF752FE094B1800FEF7C0FA0A
:10556000FDF754FEC046BD46B0BDC046AC0C0020A1
:10557000B80C0020D40C002030750000C40C0020B2
:10558000B4D9000880B500AFFDF740FE024B002201
:105590005A75C046BD4680BDAC0C002090B585B0A4
:1055A00000AF78600F23FC18FDF752FE0300237054
:1055B0000F23FB181B78002B12D01A4B1800FEF794
:1055C0008FFA194A194B11001800FEF789FA164A8A
:1055D000174B1100180000F0D5FE002000F09AF9DA
:1055E000134B180000F0EDFE031E08D0114B1800FD
:1055F000FEF776FAFFF7C6FF012000F08BF90E4B9D
:10560000180000F0DEFE031E07D00C4B180000F05F
:105610002DF900F06DF800F013F8C046BD4605B056
:1056200090BDC046D0D90008F0D8FFFFECD90008E3
:10563000C40C002000DA0008D40C0020B80C0020B4
:1056400080B584B000AF254BFB60254BBB60FB1DD4
:10565000244A127D1A70BB681A68FB681B689A425C
:1056600037D0BB681A68FB681B68D31AD9175A1859
:105670004A40FB1D1B789A4208DC1B4B1800FEF7C2
:105680002FFAFB681A68BB681A601AE0BB681A68D0
:10569000FB681B689A4207D9BB681A68FB1D1B7818
:1056A000D21ABB681A600CE0FB681A68BB681B68FA
:1056B0009A4206D9BB681A68FB1D1B78D218BB68D2
:1056C0001A60BB681B6809480022012100F036FE01
:1056D00000E0C046BD4604B080BDC046B40C00200A
:1056E000BC0C0020AC0C002010DA0008D40C002008
:1056F00080B584B000AF234BFB60234BBB60FB1D28
:10570000224A127D1A70BB681A78FB681B789A428D
:1057100033D0BB681B781A00FB681B78D31AD917E3
:105720005A184A40FB1D1B789A4208DC184B180097
:10573000FEF7D6F9FB681A78BB681A701EE0BB68E2
:105740001A78FB681B789A4208D9BB681A78FB1D47
:105750001B78D31ADAB2BB681A700FE0FB681A78AC
:10576000BB681B789A4209D9BB681A78FB1D1B7865
:10577000D318DAB2BB681A7000E0C046BD4604B068
:1057800080BDC046B10C0020C10C0020AC0C002034
:105790002CDA0008B0B586B000AF04003960100004
:1057A0001900FB1D221C1A70BB1D021C1A707B1DE8
:1057B0000A1C1A700C23FA18284B10001900032336
:1057C0001A0006F03DF900237B6140E0FB1D1A78CA
:1057D000BB1D1B78D3181800FDF7F2FA04000D006A
:1057E0007869FBF749FD031C181CFDF72BFB002211
:1057F0001B4BFCF71BFD02000B0020002900FBF7F0
:10580000D1FD03000C0018002100FAF7B9FE0300D7
:105810003B61144B1B781A003B6911001800FAF722
:1058200005FD0B003B61104A3B69D3181A780C2325
:10583000FB181A707B69D8B23C687B1D1A780C2360
:10584000F9182300FFF740FC7B6901337B617B691A
:10585000112BBBDDC046BD4606B0B0BD44DA000822
:105860000000104030DB0008D4DA000880B582B0B8
:1058700000AF78607B6818787B6859687B689A7A93
:105880007B685B7AFFF786FF7B689B7A0133DAB22D
:105890007B689A727B689A7A0E4B1B789A4202D97F
:1058A0007B6800229A727B681B780133DAB27B68CE
:1058B0001A707B681A78074B1B789A4206D9064BF8
:1058C0001800FEF70DF97B6800221A70C046BD462D
:1058D00002B080BD30DB000848DA000880B584B033
:1058E00000AF78607B685B7819000848FAF7A2FC83
:1058F0000300FB60064B1B781900F868FAF710FCF0
:1059000003001800BD4604B080BDC04630750000DD
:1059100030DB000890B587B000AF0200FB1D1A70A5
:10592000384B1B791A00384B11001800FEF7D8F8D5
:10593000FB1D1B78002B0CD1324B1B790133042249
:10594000934210DA2F4B1B790133DAB22D4B1A71C7
:1059500009E02C4B1B79002B05D02A4B1B79013B0E
:10596000DAB2284B1A71274B1B791A00274B11000A
:105970001800FEF7B5F806F0A3F803002449180054
:10598000FAF73EFD0B007B617B69224A9446634433
:105990007B617A69204B11001800FEF7A1F87A6943
:1059A0001E4B1100180000F0EDFC164B1B799A00FD
:1059B0001B4BD3183B611B4BFB603B699A78114B27
:1059C0005A713B69DA78FB681A723B691A78FB688E
:1059D0005A703B695B781C00FB681800FFF77EFF7C
:1059E000030063431A00074B9A60FB685B781A0058
:1059F000044B9B680C490D48FEF772F8C046BD4643
:105A000007B090BDAC0C00204CDA000860DA00084A
:105A1000EE02000012FDFFFF64DA0008C40C002053
:105A2000A0D90008B80C00203075000080DA00080A
:105A300080B500AF00F027F800F02CF9012000F04D
:105A40000AF800F08FF800F0BDF800F0EBF8012341
:105A50001800BD4680BD80B584B000AF0200FB1DBC
:105A60001A70FB1D1A780F23FB181A700F23FB18EE
:105A70001A789023DB051021180002F00AF8C046BE
:105A8000BD4604B080BD80B596B000AF2823FB189A
:105A900002221A602823FB180122DA602823FB184F
:105AA00010221A612823FB1802221A622823FB18ED
:105AB00000225A622823FB18A02292039A6228230C
:105AC000FB180022DA622823FB18180003F0C0FC40
:105AD000031E01D000F0B2F91823FB1807221A6048
